{
  "_format": "hh-sol-artifact-1",
  "contractName": "CampaignFactory",
  "sourceName": "contracts/Campaign.sol",
  "abi": [
    {
      "anonymous": false,
      "inputs": [
        {
          "indexed": false,
          "internalType": "string",
          "name": "title",
          "type": "string"
        },
        {
          "indexed": false,
          "internalType": "uint256",
          "name": "requiredFund",
          "type": "uint256"
        },
        {
          "indexed": true,
          "internalType": "address",
          "name": "owner",
          "type": "address"
        },
        {
          "indexed": false,
          "internalType": "address",
          "name": "campaignAddress",
          "type": "address"
        },
        {
          "indexed": false,
          "internalType": "string",
          "name": "imgURL",
          "type": "string"
        },
        {
          "indexed": false,
          "internalType": "uint256",
          "name": "timestamp",
          "type": "uint256"
        },
        {
          "indexed": true,
          "internalType": "string",
          "name": "category",
          "type": "string"
        }
      ],
      "name": "campaignCreated",
      "type": "event"
    },
    {
      "inputs": [
        {
          "internalType": "string",
          "name": "campaignTitle",
          "type": "string"
        },
        {
          "internalType": "uint256",
          "name": "requiredCampaignFund",
          "type": "uint256"
        },
        {
          "internalType": "string",
          "name": "imgURL",
          "type": "string"
        },
        {
          "internalType": "string",
          "name": "category",
          "type": "string"
        },
        {
          "internalType": "string",
          "name": "storyURL",
          "type": "string"
        }
      ],
      "name": "createCampaign",
      "outputs": [],
      "stateMutability": "nonpayable",
      "type": "function"
    },
    {
      "inputs": [
        {
          "internalType": "uint256",
          "name": "",
          "type": "uint256"
        }
      ],
      "name": "deployedCampaigns",
      "outputs": [
        {
          "internalType": "address",
          "name": "",
          "type": "address"
        }
      ],
      "stateMutability": "view",
      "type": "function"
    }
  ],
  "bytecode": "0x6080604052348015600f57600080fd5b506114998061001f6000396000f3fe608060405234801561001057600080fd5b50600436106100365760003560e01c8063339d50a51461003b578063c658857d1461006b575b600080fd5b61005560048036038101906100509190610234565b610087565b60405161006291906102a2565b60405180910390f35b61008560048036038101906100809190610403565b6100c6565b005b6000818154811061009757600080fd5b906000526020600020016000915054906101000a900473ffffffffffffffffffffffffffffffffffffffff1681565b600085858584336040516100d9906101dd565b6100e795949392919061057c565b604051809103906000f080158015610103573d6000803e3d6000fd5b5090506000819080600181540180825580915050600190039060005260206000200160009091909190916101000a81548173ffffffffffffffffffffffffffffffffffffffff021916908373ffffffffffffffffffffffffffffffffffffffff160217905550826040516101779190610620565b60405180910390203373ffffffffffffffffffffffffffffffffffffffff167ff932d905365211c7f19fda44bcb55b1adbe63365f7cdae1c35ddcb3e38ed1d4688888589426040516101cd959493929190610637565b60405180910390a3505050505050565b610dcb8061069983390190565b6000604051905090565b600080fd5b600080fd5b6000819050919050565b610211816101fe565b811461021c57600080fd5b50565b60008135905061022e81610208565b92915050565b60006020828403121561024a576102496101f4565b5b60006102588482850161021f565b91505092915050565b600073ffffffffffffffffffffffffffffffffffffffff82169050919050565b600061028c82610261565b9050919050565b61029c81610281565b82525050565b60006020820190506102b76000830184610293565b92915050565b600080fd5b600080fd5b6000601f19601f8301169050919050565b7f4e487b7100000000000000000000000000000000000000000000000000000000600052604160045260246000fd5b610310826102c7565b810181811067ffffffffffffffff8211171561032f5761032e6102d8565b5b80604052505050565b60006103426101ea565b905061034e8282610307565b919050565b600067ffffffffffffffff82111561036e5761036d6102d8565b5b610377826102c7565b9050602081019050919050565b82818337600083830152505050565b60006103a66103a184610353565b610338565b9050828152602081018484840111156103c2576103c16102c2565b5b6103cd848285610384565b509392505050565b600082601f8301126103ea576103e96102bd565b5b81356103fa848260208601610393565b91505092915050565b600080600080600060a0868803121561041f5761041e6101f4565b5b600086013567ffffffffffffffff81111561043d5761043c6101f9565b5b610449888289016103d5565b955050602061045a8882890161021f565b945050604086013567ffffffffffffffff81111561047b5761047a6101f9565b5b610487888289016103d5565b935050606086013567ffffffffffffffff8111156104a8576104a76101f9565b5b6104b4888289016103d5565b925050608086013567ffffffffffffffff8111156104d5576104d46101f9565b5b6104e1888289016103d5565b9150509295509295909350565b600081519050919050565b600082825260208201905092915050565b60005b8381101561052857808201518184015260208101905061050d565b60008484015250505050565b600061053f826104ee565b61054981856104f9565b935061055981856020860161050a565b610562816102c7565b840191505092915050565b610576816101fe565b82525050565b600060a08201905081810360008301526105968188610534565b90506105a5602083018761056d565b81810360408301526105b78186610534565b905081810360608301526105cb8185610534565b90506105da6080830184610293565b9695505050505050565b600081905092915050565b60006105fa826104ee565b61060481856105e4565b935061061481856020860161050a565b80840191505092915050565b600061062c82846105ef565b915081905092915050565b600060a08201905081810360008301526106518188610534565b9050610660602083018761056d565b61066d6040830186610293565b818103606083015261067f8185610534565b905061068e608083018461056d565b969550505050505056fe608060405234801561001057600080fd5b50604051610dcb380380610dcb833981810160405281019061003291906102bd565b846000908161004191906105a3565b5083600181905550826002908161005891906105a3565b50816003908161006891906105a3565b5080600460006101000a81548173ffffffffffffffffffffffffffffffffffffffff021916908373ffffffffffffffffffffffffffffffffffffffff1602179055505050505050610675565b6000604051905090565b600080fd5b600080fd5b600080fd5b600080fd5b6000601f19601f8301169050919050565b7f4e487b7100000000000000000000000000000000000000000000000000000000600052604160045260246000fd5b61011b826100d2565b810181811067ffffffffffffffff8211171561013a576101396100e3565b5b80604052505050565b600061014d6100b4565b90506101598282610112565b919050565b600067ffffffffffffffff821115610179576101786100e3565b5b610182826100d2565b9050602081019050919050565b60005b838110156101ad578082015181840152602081019050610192565b60008484015250505050565b60006101cc6101c78461015e565b610143565b9050828152602081018484840111156101e8576101e76100cd565b5b6101f384828561018f565b509392505050565b600082601f8301126102105761020f6100c8565b5b81516102208482602086016101b9565b91505092915050565b6000819050919050565b61023c81610229565b811461024757600080fd5b50565b60008151905061025981610233565b92915050565b600073ffffffffffffffffffffffffffffffffffffffff82169050919050565b600061028a8261025f565b9050919050565b61029a8161027f565b81146102a557600080fd5b50565b6000815190506102b781610291565b92915050565b600080600080600060a086880312156102d9576102d86100be565b5b600086015167ffffffffffffffff8111156102f7576102f66100c3565b5b610303888289016101fb565b95505060206103148882890161024a565b945050604086015167ffffffffffffffff811115610335576103346100c3565b5b610341888289016101fb565b935050606086015167ffffffffffffffff811115610362576103616100c3565b5b61036e888289016101fb565b925050608061037f888289016102a8565b9150509295509295909350565b600081519050919050565b7f4e487b7100000000000000000000000000000000000000000000000000000000600052602260045260246000fd5b600060028204905060018216806103de57607f821691505b6020821081036103f1576103f0610397565b5b50919050565b60008190508160005260206000209050919050565b60006020601f8301049050919050565b600082821b905092915050565b6000600883026104597fffffffffffffffffffffffffffffffffffffffffffffffffffffffffffffffff8261041c565b610463868361041c565b95508019841693508086168417925050509392505050565b6000819050919050565b60006104a061049b61049684610229565b61047b565b610229565b9050919050565b6000819050919050565b6104ba83610485565b6104ce6104c6826104a7565b848454610429565b825550505050565b600090565b6104e36104d6565b6104ee8184846104b1565b505050565b5b81811015610512576105076000826104db565b6001810190506104f4565b5050565b601f82111561055757610528816103f7565b6105318461040c565b81016020851015610540578190505b61055461054c8561040c565b8301826104f3565b50505b505050565b600082821c905092915050565b600061057a6000198460080261055c565b1980831691505092915050565b60006105938383610569565b9150826002028217905092915050565b6105ac8261038c565b67ffffffffffffffff8111156105c5576105c46100e3565b5b6105cf82546103c6565b6105da828285610516565b600060209050601f83116001811461060d57600084156105fb578287015190505b6106058582610587565b86555061066d565b601f19841661061b866103f7565b60005b828110156106435784890151825560018201915060208501945060208101905061061e565b86831015610660578489015161065c601f891682610569565b8355505b6001600288020188555050505b505050505050565b610747806106846000396000f3fe6080604052600436106100705760003560e01c8063824f4baf1161004e578063824f4baf146100f65780638da5cb5b14610121578063cbf0d8cc1461014c578063ed88c68e1461017757610070565b80633c471c19146100755780634a79d50c146100a057806354e3d132146100cb575b600080fd5b34801561008157600080fd5b5061008a610181565b6040516100979190610490565b60405180910390f35b3480156100ac57600080fd5b506100b5610187565b6040516100c2919061053b565b60405180910390f35b3480156100d757600080fd5b506100e0610215565b6040516100ed9190610490565b60405180910390f35b34801561010257600080fd5b5061010b61021b565b604051610118919061053b565b60405180910390f35b34801561012d57600080fd5b506101366102a9565b604051610143919061059e565b60405180910390f35b34801561015857600080fd5b506101616102cf565b60405161016e919061053b565b60405180910390f35b61017f61035d565b005b60015481565b60008054610194906105e8565b80601f01602080910402602001604051908101604052809291908181526020018280546101c0906105e8565b801561020d5780601f106101e25761010080835404028352916020019161020d565b820191906000526020600020905b8154815290600101906020018083116101f057829003601f168201915b505050505081565b60055481565b60028054610228906105e8565b80601f0160208091040260200160405190810160405280929190818152602001828054610254906105e8565b80156102a15780601f10610276576101008083540402835291602001916102a1565b820191906000526020600020905b81548152906001019060200180831161028457829003601f168201915b505050505081565b600460009054906101000a900473ffffffffffffffffffffffffffffffffffffffff1681565b600380546102dc906105e8565b80601f0160208091040260200160405190810160405280929190818152602001828054610308906105e8565b80156103555780601f1061032a57610100808354040283529160200191610355565b820191906000526020600020905b81548152906001019060200180831161033857829003601f168201915b505050505081565b600554600154116103a3576040517f08c379a000000000000000000000000000000000000000000000000000000000815260040161039a90610665565b60405180910390fd5b600460009054906101000a900473ffffffffffffffffffffffffffffffffffffffff1673ffffffffffffffffffffffffffffffffffffffff166108fc349081150290604051600060405180830381858888f1935050505015801561040b573d6000803e3d6000fd5b50346005600082825461041e91906106b4565b925050819055503373ffffffffffffffffffffffffffffffffffffffff167fcd1b0bd2a84cf1635d1e4a152c0bda255fffd1a62082a1b6a7726f0eefe89ed1344260405161046d9291906106e8565b60405180910390a2565b6000819050919050565b61048a81610477565b82525050565b60006020820190506104a56000830184610481565b92915050565b600081519050919050565b600082825260208201905092915050565b60005b838110156104e55780820151818401526020810190506104ca565b60008484015250505050565b6000601f19601f8301169050919050565b600061050d826104ab565b61051781856104b6565b93506105278185602086016104c7565b610530816104f1565b840191505092915050565b600060208201905081810360008301526105558184610502565b905092915050565b600073ffffffffffffffffffffffffffffffffffffffff82169050919050565b60006105888261055d565b9050919050565b6105988161057d565b82525050565b60006020820190506105b3600083018461058f565b92915050565b7f4e487b7100000000000000000000000000000000000000000000000000000000600052602260045260246000fd5b6000600282049050600182168061060057607f821691505b602082108103610613576106126105b9565b5b50919050565b7f52657175697265642066756e642066756c6c66696c6c65640000000000000000600082015250565b600061064f6018836104b6565b915061065a82610619565b602082019050919050565b6000602082019050818103600083015261067e81610642565b9050919050565b7f4e487b7100000000000000000000000000000000000000000000000000000000600052601160045260246000fd5b60006106bf82610477565b91506106ca83610477565b92508282019050808211156106e2576106e1610685565b5b92915050565b60006040820190506106fd6000830185610481565b61070a6020830184610481565b939250505056fea26469706673582212207dfb4bc749f6884f145c07bdcfb5aa0e3faea245cb82e3bf5b9a8aeb3ed79c4064736f6c634300081c0033a26469706673582212209464ff7257201dbdee31e8bbb10749d71a21def06dad6f90b561ad93808f52e264736f6c634300081c0033",
  "linkReferences": {},
  "deployedLinkReferences": {}
}